:020000040800F2
:1000000000400020DD0F0008C9330008CB33000892
:10001000CD330008CF330008D133000800000000C2
:10002000000000000000000000000000D3330008C2
:100030000000000000000000D5330008D73300089E
:1000400025100008DF3300082510000825100008DF
:100050002510000825100008B12F0008A93200085B
:10006000251000082510000825100008251000089C
:10007000251000082510000825100008251000088C
:10008000251000082510000825100008251000087C
:1000900025100008DB330008251000082510000893
:1000A0002510000825100008251000080D2F000855
:1000B000251000082510000825100008251000084C
:1000C0002510000825100008D93300082510000865
:0400D00025100008EF
:1001000010B5054C237833B9044B13B10448AFF351
:1001100000800123237010BD78070020000000003C
:100120003C6F000808B5034B1BB103490348AFF30C
:10013000008008BD000000007C0700203C6F000824
:1001400081F0004102E000BF83F0004330B54FEA88
:1001500041044FEA430594EA050F08BF90EA020FF5
:100160001FBF54EA000C55EA020C7FEA645C7FEA88
:10017000655C00F0E2804FEA5454D4EB5555B8BFAB
:100180006D420CDD2C4480EA020281EA030382EA1C
:10019000000083EA010180EA020281EA0303362DAE
:1001A00088BF30BD11F0004F4FEA01314FF4801C81
:1001B0004CEA113102D0404261EB410113F0004F93
:1001C0004FEA03334CEA133302D0524263EB43034A
:1001D00094EA050F00F0A780A4F10104D5F1200EE8
:1001E0000DDB02FA0EFC22FA05F2801841F1000143
:1001F00003FA0EF2801843FA05F359410EE0A5F117
:1002000020050EF1200E012A03FA0EFC28BF4CF047
:10021000020C43FA05F3C01851EBE37101F00045FD
:1002200007D54FF0000EDCF1000C7EEB00006EEB0A
:100230000101B1F5801F1BD3B1F5001F0CD3490894
:100240005FEA30004FEA3C0C04F101044FEA4452EB
:1002500012F5800F80F09A80BCF1004F08BF5FEA72
:10026000500C50F1000041EB045141EA050130BD52
:100270005FEA4C0C404141EB0101013C28BFB1F564
:10028000801FE9D291F0000F04BF01460020B1FAAF
:1002900081F308BF2033A3F10B03B3F120020CDA82
:1002A0000C3208DD02F1140CC2F10C0201FA0CF060
:1002B00021FA02F10CE002F11402D8BFC2F1200CC5
:1002C00001FA02F120FA0CFCDCBF41EA0C0190407B
:1002D000E41AA2BF01EB0451294330BD6FEA0404C4
:1002E0001F3C1CDA0C340EDC04F11404C4F12002AF
:1002F00020FA04F001FA02F340EA030021FA04F3C1
:1003000045EA030130BDC4F10C04C4F1200220FA17
:1003100002F001FA04F340EA0300294630BD21FA55
:1003200004F0294630BD94F0000F83F4801306BF1B
:1003300081F480110134013D4EE77FEA645C18BF0F
:100340007FEA655C29D094EA050F08BF90EA020FA6
:1003500005D054EA000C04BF1946104630BD91EA9E
:10036000030F1EBF0021002030BD5FEA545C05D1A1
:100370004000494128BF41F0004130BD14F58004E0
:100380003CBF01F5801130BD01F0004545F0FE4154
:1003900041F470014FF0000030BD7FEA645C1ABF89
:1003A000194610467FEA655C1CBF0B46024650EAC0
:1003B000013406BF52EA033591EA030F41F40021EC
:1003C00030BD00BF90F0000F04BF0021704730B572
:1003D0004FF4806404F132044FF000054FF0000147
:1003E00050E700BF90F0000F04BF0021704730B508
:1003F0004FF4806404F1320410F0004548BF4042DD
:100400004FF000013EE700BF42004FEAE2014FEA31
:1004100031014FEA02701FBF12F07F4393F07F4F0C
:1004200081F06051704732F07F4208BF704793F00F
:100430007F4F04BF41F40021704730B54FF4607422
:1004400001F0004521F000411CE700BF50EA010225
:1004500008BF704730B54FF000050AE050EA0102CE
:1004600008BF704730B511F0004502D5404261EB3E
:1004700041014FF4806404F132045FEA915C3FF47F
:10048000D8AE4FF003025FEADC0C18BF03325FEA1C
:10049000DC0C18BF033202EBDC02C2F1200300FACD
:1004A00003FC20FA02F001FA03FE40EA0E0021FAF2
:1004B00002F11444BDE600BF70B54FF0FF0C4CF4E0
:1004C000E06C1CEA11541DBF1CEA135594EA0C0F92
:1004D00095EA0C0F00F0DEF82C4481EA030621EACD
:1004E0004C5123EA4C5350EA013518BF52EA033508
:1004F00041F4801143F4801338D0A0FB02CE4FF0BA
:100500000005E1FB02E506F00042E0FB03E54FF0E9
:100510000006E1FB03569CF0000F18BF4EF0010EE1
:10052000A4F1FF04B6F5007F64F5407404D25FEADD
:100530004E0E6D4146EB060642EAC62141EA555190
:100540004FEAC52040EA5E504FEACE2EB4F1FD0CD2
:1005500088BFBCF5E06F1ED8BEF1004F08BF5FEA50
:10056000500E50F1000041EB045170BD06F0004602
:1005700046EA010140EA020081EA0301B4EB5C04AF
:10058000C2BFD4EB0C0541EA045170BD41F48011A7
:100590004FF0000E013C00F3AB8014F1360FDEBFCC
:1005A000002001F0004170BDC4F10004203C35DAA8
:1005B0000C341BDC04F11404C4F1200500FA05F32B
:1005C00020FA04F001FA05F240EA020001F00042CC
:1005D00021F0004110EBD37021FA04F642EB060142
:1005E0005EEA430E08BF20EAD37070BDC4F10C046C
:1005F000C4F1200500FA04F320FA05F001FA04F230
:1006000040EA020001F0004110EBD37041F100011B
:100610005EEA430E08BF20EAD37070BDC4F1200526
:1006200000FA05F24EEA020E20FA04F301FA05F28E
:1006300043EA020321FA04F001F0004121FA04F236
:1006400020EA020000EBD3705EEA430E08BF20EA06
:10065000D37070BD94F0000F0FD101F00046400040
:1006600041EB010111F4801F08BF013CF7D041EAC2
:10067000060195F0000F18BF704703F000465200C6
:1006800043EB030313F4801F08BF013DF7D043EA97
:100690000603704794EA0C0F0CEA135518BF95EA4D
:1006A0000C0F0CD050EA410618BF52EA4306D1D1D4
:1006B00081EA030101F000414FF0000070BD50EAF3
:1006C000410606BF1046194652EA430619D094EA7D
:1006D0000C0F02D150EA013613D195EA0C0F05D167
:1006E00052EA03361CBF104619460AD181EA0301BB
:1006F00001F0004141F0FE4141F470014FF0000073
:1007000070BD41F0FE4141F4780170BD70B54FF00D
:10071000FF0C4CF4E06C1CEA11541DBF1CEA13558D
:1007200094EA0C0F95EA0C0F00F0A7F8A4EB05046F
:1007300081EA030E52EA03354FEA013100F0888066
:100740004FEA03334FF0805545EA131343EA12632F
:100750004FEA022245EA111545EA10654FEA0026E4
:100760000EF000419D4208BF964244F1FD0404F59D
:10077000407402D25B084FEA3202B61A65EB0305F9
:100780005B084FEA32024FF480104FF4002CB6EBB6
:10079000020E75EB030E22BFB61A754640EA0C0036
:1007A0005B084FEA3202B6EB020E75EB030E22BF76
:1007B000B61A754640EA5C005B084FEA3202B6EBB7
:1007C000020E75EB030E22BFB61A754640EA9C0076
:1007D0005B084FEA3202B6EB020E75EB030E22BF46
:1007E000B61A754640EADC0055EA060E18D04FEA04
:1007F000051545EA16754FEA06164FEAC30343EAA4
:1008000052734FEAC2025FEA1C1CC0D111F4801F70
:100810000BD141EA00014FF000004FF0004CB6E769
:1008200011F4801F04BF01430020B4F1FD0C88BF08
:10083000BCF5E06F3FF6AFAEB5EB030C04BFB6EB13
:10084000020C5FEA500C50F1000041EB045170BD06
:100850000EF0004E4EEA113114EB5C04C2BFD4EB33
:100860000C0541EA045170BD41F480114FF0000EB7
:10087000013C90E645EA060E8DE60CEA135594EA33
:100880000C0F08BF95EA0C0F3FF43BAF94EA0C0F36
:100890000AD150EA01347FF434AF95EA0C0F7FF4AB
:1008A00025AF104619462CE795EA0C0F06D152EAFF
:1008B00003353FF4FDAE1046194622E750EA4106E3
:1008C00018BF52EA43067FF4C5AE50EA41047FF4F4
:1008D0000DAF52EA43057FF4EBAE12E74FF0FF3C59
:1008E00006E000BF4FF0010C02E000BF4FF0010C2A
:1008F0004DF804CD4FEA410C7FEA6C5C4FEA430CA3
:1009000018BF7FEA6C5C1BD001B050EA410C0CBFF1
:1009100052EA430C91EA030F02BF90EA020F002053
:10092000704710F1000F91EA030F58BF994208BFBA
:1009300090422CBFD8176FEAE37040F00100704777
:100940004FEA410C7FEA6C5C02D150EA013C07D1CE
:100950004FEA430C7FEA6C5CD6D152EA033CD3D019
:100960005DF8040B704700BF8446104662468C4613
:100970001946634600E000BF01B5FFF7B7FF002846
:1009800048BF10F1000F01BD4DF808EDFFF7F4FF6F
:100990000CBF012000205DF808FB00BF4DF808EDFA
:1009A000FFF7EAFF34BF012000205DF808FB00BF1D
:1009B0004DF808EDFFF7E0FF94BF012000205DF83F
:1009C00008FB00BF4DF808EDFFF7CEFF94BF0120F4
:1009D00000205DF808FB00BF4DF808EDFFF7C4FFED
:1009E00034BF012000205DF808FB00BF4FEA410240
:1009F00012F5001215D211D56FF47873B3EB625271
:100A000012D94FEAC12343F0004343EA505311F097
:100A1000004F23FA02F018BF404270474FF0000029
:100A2000704750EA013005D111F0004008BF6FF067
:100A3000004070474FF00000704700BF4A0011D2DD
:100A400012F5001211D20DD56FF47873B3EB625228
:100A50000ED44FEAC12343F0004343EA505323FA34
:100A600002F070474FF00000704750EA013002D1A9
:100A70004FF0FF3070474FF00000704753B94AB94C
:100A8000002908BF00281CBF4FF0FF314FF0FF3096
:100A900000F092B9ADF1080C6DE904CE00F024F835
:100AA000DDF804E0DDE9022304B07047D0B50C4B5B
:100AB000002206460F46FFF7FFFCFFF7BFFF044684
:100AC000FFF780FC074B0022FFF7F6FC02460B46BF
:100AD00030463946FFF738FBFFF7B0FF2146D0BD5F
:100AE0000000F03D0000F0412DE9F047089E0D4662
:100AF00004468846002B4DD18A42944668D9B2FA02
:100B000082F252B101FA02F3C2F1200120FA01F19E
:100B10000CFA02FC41EA030894404FEA1C45210C00
:100B2000B8FBF5FE1FFA8CF705FB1E8341EA034371
:100B30000EFB07F199420BD91CEB03030EF1FF30BA
:100B400080F01E81994240F21B81AEF1020E634497
:100B50005B1AA4B2B3FBF5F005FB103344EA03447F
:100B600000FB07F7A7420AD91CEB040400F1FF338E
:100B700080F00881A74240F2058164440238E41BFA
:100B800040EA0E4000211EB1D4400023C6E90043D4
:100B9000BDE8F0878B4208D9002E00F0EE800021DE
:100BA000C6E900050846BDE8F087B3FA83F10029DD
:100BB0004AD1AB4202D3824200F2F980841A65EB3B
:100BC000030301209846002EE2D0C6E90048DFE783
:100BD00002B9FFDEB2FA82F2002A40F09180A1EB66
:100BE0000C054FEA1C471FFA8CFE0121B5FBF7F3F9
:100BF00007FB1350250C45EA00450EFB03F0A84205
:100C000008D91CEB050503F1FF3802D2A84200F217
:100C1000CB8043462D1AA4B2B5FBF7F007FB105565
:100C200044EA05440EFB00FEA64508D91CEB04046B
:100C300000F1FF3502D2A64500F2BB802846A4EBA6
:100C40000E0440EA03409EE7C1F120078B4022FAE0
:100C500007FC4CEA030C20FA07F405FA01F31C43E5
:100C6000FD404FEA1C4900FA01F3B5FBF9F8200CEE
:100C70001FFA8CFE09FB185540EA054508FB0EF0EB
:100C8000A84202FA01F20BD91CEB050508F1FF3A64
:100C900080F08880A84240F28580A8F1020865446F
:100CA0002D1AA4B2B5FBF9F009FB105544EA05452D
:100CB00000FB0EFEAE4508D91CEB050500F1FF3424
:100CC0006CD2AE456AD90238654440EA0840A0FBC0
:100CD0000294A5EB0E05A542C846A64656D353D0AE
:100CE0005EB1B3EB080265EB0E0505FA07F722FAD1
:100CF00001F3CD401F43C6E900750021BDE8F08730
:100D0000C2F1200320FA03F10CFA02FC25FA03F3E6
:100D100095400D434FEA1C471FFA8CFEB3FBF7F1D9
:100D200007FB11302B0C43EA004301FB0EF0984205
:100D300004FA02F408D91CEB030301F1FF382FD2A7
:100D400098422DD9023963441B1AADB2B3FBF7F0B8
:100D500007FB103345EA034500FB0EF3AB4208D90D
:100D60001CEB050500F1FF3816D2AB4214D902384E
:100D70006544ED1A40EA014138E73146304607E75D
:100D80008646E5E61846FAE64B45A9D2B9EB0208D5
:100D900064EB0C0E0138A3E74046EAE7204694E7EF
:100DA0004146D1E7D0467BE7023B654432E708463F
:100DB00009E76444023842E7704700BF844641EACD
:100DC000000313F003036DD1403A41D351F8043BC3
:100DD00040F8043B51F8043B40F8043B51F8043B15
:100DE00040F8043B51F8043B40F8043B51F8043B05
:100DF00040F8043B51F8043B40F8043B51F8043BF5
:100E000040F8043B51F8043B40F8043B51F8043BE4
:100E100040F8043B51F8043B40F8043B51F8043BD4
:100E200040F8043B51F8043B40F8043B51F8043BC4
:100E300040F8043B51F8043B40F8043B51F8043BB4
:100E400040F8043B51F8043B40F8043B403ABDD223
:100E5000303211D351F8043B40F8043B51F8043BC5
:100E600040F8043B51F8043B40F8043B51F8043B84
:100E700040F8043B103AEDD20C3205D351F8043B54
:100E800040F8043B043AF9D2043208D0D2071CBF20
:100E900011F8013B00F8013B01D30B880380604649
:100EA000704700BF082A13D38B078DD010F00303BF
:100EB0008AD0C3F10403D21ADB071CBF11F8013B2F
:100EC00000F8013B80D331F8023B20F8023B7BE77E
:100ED000043AD9D3013A11F8013B00F8013BF9D2A9
:100EE0000B7803704B7843708B7883706046704743
:100EF00000000000000000000000000000000000F2
:100F000090F800F06DE9024520F007016FF0000C49
:100F100010F0070491F820F040F049804FF00004F1
:100F20006FF00700D1E9002391F840F000F10800CC
:100F300082FA4CF2A4FA8CF283FA4CF3A2FA8CF304
:100F40004BBBD1E9022382FA4CF200F10800A4FA6B
:100F50008CF283FA4CF3A2FA8CF3E3B9D1E90423BF
:100F600082FA4CF200F10800A4FA8CF283FA4CF3F6
:100F7000A2FA8CF37BB9D1E9062301F1200182FAB0
:100F80004CF200F10800A4FA8CF283FA4CF3A2FAB6
:100F90008CF3002BC6D0002A04BF04301A4612BAC4
:100FA000B2FA82F2FDE8024500EBD2007047D1E9C7
:100FB000002304F00305C4F100004FEAC50514F056
:100FC000040F91F840F00CFA05F562EA05021CBF27
:100FD00063EA050362464FF00004A9E7002103E03D
:100FE0000B4B5B58435004310A480B4B42189A4252
:100FF000F6D30A4A02E0002342F8043B084B9A4227
:10100000F9D300F023F805F06FFB02F013F8FEE7C8
:101010007C7400080000002074070020780700207E
:1010200058140020FEE70000064B0748E02283F832
:101030002220C0210023C2180133252B82F800137F
:10104000F9D1704700ED00E000E100E00F4A08B57B
:10105000D2F8883043F47003C2F888304FF08042F1
:10106000D36843F08003D36002F50032536923F460
:10107000702343F48033536193689B07FCD5FFF7DB
:10108000D3FFBDE8084000F0D5BF00BF00ED00E091
:101090009A4238BF8854704770472DE9F84F9946F7
:1010A0000D9B15469A07DDE90B4706468B4622D075
:1010B0002A460A9901EB04081444A2421FD10D9B51
:1010C0009B0705D5A2EB0508474505EB08041FD88B
:1010D0002046BDE8F88F4B4659462020B04708F11E
:1010E0000108B8450AEB0802F5D33A1BBC4288BF99
:1010F00000222A44DDE7A046A5EB040AF1E702F14D
:10110000010A18F8010D4B465946B0475246D4E73C
:101110004B46224659462020B04708F10108D3E744
:101120002DE9F047DDE90D7616F0020FDDE90854F0
:10113000DDE90BC89DF828E01FD106F001094FB189
:10114000B9F1000F06D0BEF1000F02D116F00C0F5E
:1011500000D0013F4FF0300A04E0202C04D005F805
:1011600004A00134A045F8D84FF0300AB9F1000FBF
:1011700003D0BC4201D21F2C34D916F0100F1FD05F
:1011800016F4806F33D194B3444501D0BC422ED1C4
:10119000B4F101082AD0BCF1100F33D1023C16F093
:1011A000200F31D11F2C15D84FF0780C05F804C052
:1011B00001341F2C0ED84FF0300C05F804C0013458
:1011C0001F2C07D8BEF1000F23D04FF02D0C05F8CF
:1011D00004C00134CDE90A76CDE90854BDE8F047F2
:1011E000FFF75BBF05F804A00134BFE74446BCF13C
:1011F000100FD4D0BCF1020FDBD11F2CEAD84FF076
:10120000620CD3E74446F5E71F2CE3D84FF0580CA7
:10121000CCE716F0040F02D04FF02B0CD7E716F0F6
:10122000080FD7D04FF0200CD1E72DE9F04391B053
:10123000189D1A9E1D9F0DB927F010077C0500D53B
:1012400015B317F0200F14BF4FF0410E4FF0610E91
:10125000AC460DF120080025AEF10A0EBCFBF6F9F4
:1012600006FB19C95FFA89F4B9F1090F94BF30344C
:101270007444E4B2B44508F8014BBCFBF6F405F144
:10128000010501D3202D10D11C9C05941B9C0697B1
:10129000CDE903649DF86440CDE9015408AC0094A5
:1012A000FFF73EFF11B0BDE8F083A446D6E72DE975
:1012B000F04F2DED048B93B0DDE92065289F9A4611
:1012C00056EA050308BF27F0100709EE102A7A0531
:1012D000DDE924B908EE100A08EE901A02D556EAA4
:1012E00005033DD017F0200F14BF412361230A3BB3
:1012F0000DF12808002409935A464B4630462946EA
:10130000FFF7BCFBD2B2092A8ABF099B3032D21840
:101310005E45D2B275EB090308F8012B04F1010414
:1013200001D3202C19D1279B0593269B0697CDE945
:1013300003B39DF88830CDE901430AAB009319EE61
:10134000102A18EE901A18EE100A5346FFF7E8FE1E
:1013500013B0BDEC048BBDE8F08F06460D46CBE71D
:101360000024E0E7000000002DE9F04F2DED088B90
:101370008DB01D46DDE920B39DED1E7B0A93229BB7
:10138000079208EE900AB0EE479AF0EE679A0C4684
:10139000069351EC170B53EC172BFFF7F5FA80B1BE
:1013A000CB4B51EC190B4FF0FF32FFF715FB40B957
:1013B00051EC190B4FF0FF326FF48013FFF7EEFA88
:1013C00090B1069B22930A9B079A18EE900ACDE9EA
:1013D00020B321462B468DED1E9B0DB0BDEC088B36
:1013E000BDE8F04F00F08CB951EC190B002200233E
:1013F000FFF7D4FA002800F03F8119EE903A19EE79
:10140000108A03F10049069B9FEDB27A9FEDB28AE4
:1014100013F480630B93C9F30A53A3F2FF3307EE6F
:10142000903AC9F31302F8EEE77A42F07F51AB4BE2
:101430004FF00002404641F4401108BF4FF0060B48
:10144000A7EE878AFEF780FE9BA3D3E90023FFF770
:1014500033F8064618EE100A0F46FEF7D5FF02468F
:101460000B4630463946FEF771FEFFF7BFFA07EE2E
:10147000900AB8EEE77ADFED9A7AB6EE008AA7EE28
:10148000278A8246DFED977ABDEEC88AF8EEC86AF1
:1014900067EEE67ADFED946AE7EE267A17EE900AB9
:1014A000FEF7B2FF02460B4606460F46FFF704F86A
:1014B000324641EC1A0B3B4630463946FEF746FEB3
:1014C0008A4B41EC1B0B002251EC1A0BFFF71EF963
:1014D000874B0022FEF73AFE02460B4651EC1A0BF0
:1014E000FFF714F9834B0022FEF730FE02460B464D
:1014F00051EC1A0BFFF70AF9324641EC1A0B3B4646
:1015000000204FF08041FEF71FFE02460B4651ECD3
:101510001A0BFEF71BFE02460B4651EC1B0BFFF7A6
:10152000F5F8754B0022FEF711FE18EE103A03F2A3
:10153000FF3633050022FEF7BFFF42464B46064604
:101540000F46FFF749FA002840F09980CDE9086777
:101550000AF16303C72B069B34BF04260526190531
:1015600023D557A3D3E9002340464946FFF72AFA7B
:10157000002800F08F8054A3D3E900234046494659
:10158000FFF70CFA002800F08580069BD345C8BF02
:10159000ABEB0A0B43F480634FF00006CCBF0BF1BA
:1015A000FF3B4FF0000B0693B2460A9B9E4238BFAA
:1015B0009F1B069B28BF002713F002030B9302D04A
:1015C000002E18BF0027BAF1000F07D04046494649
:1015D000DDE90823FFF79AF88046894651EC190B9C
:1015E00000220023FFF7DAF910B109F10043994610
:1015F000069B079ACDF808B023F40063CDE9037386
:10160000CDE9008918EE900A2B46214600F078F8C3
:101610006EB3069B13F0200F00F1010802462B4623
:1016200014BF45206520214618EE907AB84705235F
:10163000059300220A238AEAEA70CDE90232A0EB80
:10164000EA704FEADA73013E019300902B4618EEE0
:10165000900A049642462146FFF7E7FD0B9B33B103
:10166000079BC61A079B98190A9BB3421BD80DB05B
:10167000BDEC088BBDE8F08F59EC198BC3E61C4B11
:10168000002230463946FFF741F80AF1FF3ACDE92A
:1016900008015DE7BBF1000F87D00B9B002B84D0C6
:1016A0000BF1FF3B81E7024618EE907A2B4621466C
:1016B0002020B8470136D5E700000060A787D23F59
:1016C000000000E0E2361A3F0000000080842E4156
:1016D000FFFFEF7F9B209A3E4451343E0000F83FCD
:1016E000789A54401872313F8E5D134000002C40B0
:1016F00000002440000018400000F03F00000000FF
:101700002DE9F04F2DED088B8FB0DDE920AB09EE10
:10171000103ADDE9225308EE100A08EE902A0F462F
:10172000049352465B4650465946249EFFF72CF9D7
:10173000A0B9049B229303232193B94B23962093B2
:1017400018EE902A19EE103A18EE100A39460FB02A
:10175000BDEC088BBDE8F04FFFF79FBC4FF0FF32A8
:101760006FF4801350465946FFF718F930B1049BC7
:101770002293042321932396AA4BE0E7AA4B4FF030
:10178000FF3250465946FFF727F970B1A74A04992E
:10179000239606F00403002B08BF0322A44B1CBFB2
:1017A00013460422CDE92121C9E799A3D3E90023F7
:1017B00050465946FFF710F938B997A3D3E90023EB
:1017C00050465946FFF7EAF898B1049B2496CDE9B4
:1017D000225318EE902A19EE103A18EE100A3946E4
:1017E000CDE920AB0FB0BDEC088BBDE8F04FFFF7A3
:1017F000BBBD0022002350465946FFF7CFF8002812
:1018000000F081805B46524600200021FEF79CFCE0
:10181000012382468B46059316F4806F08BF062588
:1018200006ABA5F12002A9463021B9F1090FA5EBBD
:10183000090406D909F1FF394A4503F8011BF4D11F
:10184000202459465046FFF7D1F87A4B03EBC903E1
:1018500093ED007B0546B0EE47AAF0EE67AAFEF7CF
:10186000C1FD02460B4650465946FEF76DFC53EC4F
:101870001A2BFEF721FE02460B4643EC1B2BFFF70B
:10188000DDF88046FEF79EFD02460B4651EC1B0B31
:10189000FEF75AFC02460B4643EC1B2B664B00221C
:1018A000FFF79AF888B308F101084046FEF78AFD71
:1018B00002460B4651EC1A0BFFF77AF810B10135CE
:1018C0004FF00008B9F1000F50D12846FEF78AFD0D
:1018D00002460B4650465946FEF736FC564B002250
:1018E00080468946FFF75AF830B1534B00224046F4
:1018F0004946FFF771F810B1E80700D5013506AB8E
:1019000023440A2259E0059086E74B4B51EC1B0B10
:101910000022FFF743F80028D4D1B8F1000F02D01D
:1019200018F0010FCED008F10108CBE7B8FBF1F0B9
:1019300001FB10823032B8F1090F03F8012B09F1D5
:10194000FF3904F1010428D8A14406AA3021202C33
:1019500011D04C4504F1010321D104F138020DEB03
:1019600002042E2204F8202C1C46C8E706AB2344B0
:101970000A21202CDAD106F00303012B06AB39D162
:10198000049A002A36D0059A12B916F00C0F02D02C
:10199000049A013A0492302214E08046E9E7A15407
:1019A0001C46D4E795FBF2F102FB1155303503F8E4
:1019B000015B01340D460029DDD0202CF2D1DAE79D
:1019C0001A5501340499A14214D9202CF8D1049A53
:1019D0000093CDE9014219EE103A18EE902A18EE64
:1019E000100A03963946FFF758FB0FB0BDEC088B81
:1019F000BDE8F08F202CEAD0059AFAB104F1380244
:101A00006A442D2102F8201C0134E0E7AFF3008086
:101A10000000000065CDCD410000000065CDCDC1C6
:101A20007171000875710008FFFFEF7F6C7100088D
:101A300068710008586F00080000E03F710704D586
:101A400004F138026A442B21DCE73207BFD504F1E8
:101A500038026A442021D5E72DE9F04F91B09B462A
:101A6000B74B1A9E0029904614BF8146994600251F
:101A70009BF8000058B945452CBF08F1FF322A46B3
:101A800043460020C847284611B0BDE8F08F2528FE
:101A90000BF1010B06D02A466C1C43460A91C8473D
:101AA0002546B2E1002306E02D2A14D0302A0CD1BD
:101AB00043F001038346584610F8012B2B2A0DD022
:101AC000F2D8202A0DD0232A0ED0A2F13004092CFE
:101AD00029D8002710E043F00203EBE743F00403AA
:101AE000E8E743F00803E5E743F01003E2E70A24E0
:101AF00004FB0727303F8346584610F8012BA2F11C
:101B00003004092CF3D99BF800202E2A67D19BF8CA
:101B10000100A0F13004092C0BF1010243F48063B1
:101B200053D8002411E02A2A08D156F8047B002F4C
:101B3000BCBF43F002037F428346E4E70027E2E7AD
:101B40000A2202FB0404303C624694461CF8010B56
:101B5000A0F1300EBEF1090FF2D993465A4612F8A1
:101B6000010B6C2844D03CD868284AD06A2852D04F
:101B70005A4693461BF8010B78288CD857284DD825
:101B8000452805D087D9462800F02C81472882D1E6
:101B900000F0DF02472A04BF00F0FD0043F40063B9
:101BA000452808BF43F02003CDE90373073626F02C
:101BB00007060294F6E802234846CDE9002343468F
:101BC0002A460A91FFF7D0FB1EE12A2806D156F8D3
:101BD000044B0BF1020B24EAE474BFE793460024A4
:101BE000BCE7742801D07A28C2D143F48073C0E7DF
:101BF0009BF801006C28F8D143F440730BF102020A
:101C0000B7E79BF80100682802D043F08003B0E7F3
:101C100043F0C003F2E743F40073AAE7A0F15802CF
:101C2000202A3FF638AF0FF2080C5CF822F000BF14
:101C3000B51C0008971A0008971A0008971A0008A0
:101C4000971A0008971A0008971A0008971A0008B0
:101C5000971A0008971A0008B51C00080F1E000804
:101C6000B51C0008911B0008E91D0008911B000825
:101C7000971A0008B51C0008971A0008971A000860
:101C8000971A0008971A0008971A0008B51C000850
:101C9000651F0008971A0008971A00088F1E000891
:101CA000971A0008B51C0008971A0008971A000830
:101CB000B51C0008782800F06B81582800F0668178
:101CC0006F2800F06781622800F06681692823F0A0
:101CD00010034FF00A0203D0642801D023F00C0354
:101CE00013F4806F18BF23F00103692803F4007C0C
:101CF00001D0642841D1BCF1000F23D0073626F073
:101D00000706B24676685AF8080B0694CDE90773C1
:101D100000230593F30F002E02930492034602DA88
:101D2000434266EB4606CDE9003643462A4648461E
:101D30000A91FFF7BCFA0A990546564698E600BF95
:101D400099100008D80506F1040A0CD53068CDE9D1
:101D50000224CDE9047300284FEAD0730193B8BF81
:101D60004042009027E013F0400F306801D0C0B22D
:101D7000EDE71E0648BF00B2E9E7BCF1000F0ED048
:101D8000CDE907730023CDE90423073626F0070ABF
:101D900006940293FAE80223CDE90023C5E7D805AB
:101DA00006F1040A0ED5CDE90473CDE90224CDF87D
:101DB00004C03368009343462A4648460A91FFF719
:101DC00034FAB8E713F0400F306807D0C0B2CDE95D
:101DD00004730023CDE902240193C2E71E0648BF25
:101DE00080B2F4E743F02003CDE90373073626F011
:101DF00007060294F6E802234846CDE9002343464D
:101E00002A460A91FFF77CFC05460A9930E613F052
:101E1000020426D04FF0010A56F8040B0B916B1CFC
:101E20000A932A464346C0B2C8470B996CB30A9A34
:101E3000544620E00A9143462020C8470A990AEBFD
:101E400005020AF1010A5745F4D8002F07F1FF33C4
:101E500008BF002307F1010A1D4408BF4FF0020A22
:101E6000DAE7A246EBE70B9143462020551CC84712
:101E70000B9901342A46BC42F5D30A9AA7EB0A0310
:101E8000574538BF00231A440A920A9DF0E53246AE
:101E900052F8046B0A92414A002E08BF1646002CE5
:101EA00014BF22464FF0FF323244B4469CF8000083
:101EB00008B1944511D113F48062ACEB060A0B9281
:101EC00002D0A24528BFA24613F002030C931DD1F5
:101ED000AAEB05032A460E930AE00CF1010CE5E794
:101EE000531C0D930F9143462020C8470D9A0F991C
:101EF0000E9BD3189F42F3D8A7EB0A03574538BF70
:101F000000230AF101021D4403EB020AAB1B0D93EF
:101F100005E01C460E9143462A46C8470E990D9B84
:101F20009D1916F8010B28B10B9B002BF2D0631EF4
:101F3000002CEED10C9B9BB12A46AAEB050406E0CF
:101F40000B9143462020561CC8470B993246131963
:101F5000BB42F5D3A7EB0A03574538BF00231D4406
:101F60000A9E85E543F0210305930823CDE9034349
:101F700010220023CDE9013256F8043B00932A4693
:101F8000434648460A91FFF750F93DE743F02003E6
:101F90001022A3E60822A1E602229FE67A71000839
:101FA0000EB40FB505AA014652F8043B0392009205
:101FB00004484FF0FF32FFF74FFD04B05DF804EB2B
:101FC00003B070479110000803680A7A10B544689E
:101FD00024F0700422434C7A23F080030CB143F0C8
:101FE000800303604B684260C3620B68836210BD6C
:101FF000036801290CBF43F0040323F004030360CA
:102000007047036819B143F001030360704723F080
:102010000103FAE7C36801290CBF43F0010323F071
:102020000103C3607047036931EA03030CBF012059
:102030000020704708B5012000F008FA0C4B9842C8
:1020400014D90C4A0133B0FBF3F313700A4A4FF46E
:102050007A73B0FBF3F04FF0E0230138E0215861D0
:1020600082F8231000229A6107221A6108BD00BF7E
:102070003F420F009407002000ED00E030B50A4B0E
:102080004FF0E0211B784D695BB18C695843002308
:102090008A699442FCD0234498BF5B199B1A8342FF
:1020A00000D330BD1446F3E7940700204FF47A7351
:1020B0005843FFF7E3BF00001A4B20F400529A4246
:1020C00003D003F58053984228D1174B17499A68DB
:1020D000D20444BF4FF480529A60154B154A99615F
:1020E0009A611A6802F4007242F022021A60002219
:1020F00099619A614FF0FF3202600B4A9168C904FE
:1021000005D54FF4805393606FF0670070479A686D
:10211000D207FCD501229A60002070474FF0FF30B3
:10212000704700BF00D0000800F00040BFAE9D8C9B
:1021300000000240161514132E4B98422DE9F34768
:1021400006460F46154652D3821803F500539A42AD
:102150004DD203F16053284C9A68D00444BF4FF429
:1021600080529A60254A264BA261A361236803F43A
:10217000007343F0240323604FF00008A26125F0B0
:10218000070905F00702C4F818804D4538BF4246DC
:102190004FF0FF3A49446846CDE900AAFEF70EFE2B
:1021A000184A4346381D4FF0010CAB4201D30020C2
:1021B00013E04B4535BFF9580099E160E16034BF49
:1021C000C1580199216143F806A09168C90407D557
:1021D0004FF4805393606FF0670002B0BDE8F08762
:1021E000A168C907FCD5C4F808C00833DDE74FF083
:1021F000FF30F2E700D0000800000240BFAE9D8C27
:102200001615141300F00040012310B58B40062A68
:1022100000F28280DFE802F0040F1B2938496300D6
:1022200002681A43026082681A438260C26822EA26
:102230000303C36038E002681A43026082681A43ED
:102240008260C2681A43C260026913430BE00268ED
:102250001A43026082681A438260C2681A43C260ED
:10226000026922EA030303611EE0026822EA030214
:102270000260826822EA03028260426822EA030264
:102280004260826913430EE0026822EA03020260A0
:10229000826822EA03028260426822EA0302426004
:1022A000826922EA0303836110BD1F4CA0426FEADA
:1022B00003020BD1072909D9816911408161816825
:1022C0000A40826002681A430260BDE7016811405B
:1022D000016081680A40826042681A43D0E7124C6C
:1022E000A0426FEA03020AD1072908D98169114087
:1022F000816181681140816001680A40E4E70168FA
:102300001140016081681140816041680B43436066
:1023100083691A408261C7E702681A4302608268D3
:1023200022EA030281E700BF00FC014010B52B4CFC
:102330000123A04203FA01F346D1072944D9816958
:10234000194219D18168194216D10168194213D076
:102350000169194210D072B9826922EA03028261CE
:10236000826822EA03028260026822EA03020260B3
:1023700002691343036110BD18498869184219D1D5
:102380008868184216D10868184213D108691842A3
:1023900010D0002AEFD08A6922EA03028A618A6893
:1023A00022EA03028A600A681A430A600A69134330
:1023B0000B61E0E709491AB10A6A13430B62DAE7D5
:1023C000CA691343CB61D6E71AB1026A13430362A9
:1023D000D1E7C2691343C361CDE700BF00FC0140F0
:1023E0008269012303FA01F15140816170470000C5
:1023F000072910B511D90E4B083998420BBF01EBD4
:102400004101890007230F238B4002FA01F1C26BBF
:1024100022EA03031943C16310BD836B89000F24B3
:102420008C4023EA040302FA01F119438163F3E7C4
:1024300000FC0140044AD36818B143F08003D36024
:10244000704723F08003FAE7008000404FF080439C
:1024500001461A6802F4E042B2F5A04F20D015D828
:10246000B2F5805F1ED0B2F5005F1B4808BF4FF485
:10247000004002291BD0032923D0012905D14FF0A8
:1024800080431B68C3F30323D8407047B2F5C04FA5
:102490000BD0114B1148B2F5E04F18BF1846E8E7D2
:1024A0000F48E6E74FF4FA40E3E70E48E1E74FF064
:1024B00080421368C3F30323D8401368C3F3421365
:1024C000E2E74FF080421368C3F30323D840136858
:1024D000C3F3C233D8E700BF00366E01006CDC02E4
:1024E0000048E80180EE36004FF08043986800F421
:1024F000C03070474FF08043986800F4C040704788
:102500004FF08043986800F4C05070474FF080430C
:10251000986800F4C06070474FF08043586800F03E
:102520000200704741284AD8DFE810F01102070284
:10253000FD01E401D201B901710167015D0153019F
:1025400049013F0135010D010301D600EA00E00019
:10255000CC004900C200B800AE00A30099008F0073
:1025600085006B00610057004D00420017012101FA
:102570002B01490049004900490049004900490030
:102580004900490049004900490049002E0225023E
:102590001B023802950149004900490049004900E1
:1025A00049004900490049004900490042024C02E3
:1025B0004FF08043DA6819B142F48012DA60704754
:1025C00022F48012FAE74FF08043DA6811B142F446
:1025D0000022F3E722F40022F0E74FF08043DA68AC
:1025E00011B142F48022E9E722F48022E6E74FF0BD
:1025F0008043DA6811B142F40032DFE722F400329E
:10260000DCE74FF08043DA6879B142F48032DA6077
:102610004FF080439A6A02F03F023F2AFAD15A698A
:1026200031B142F004025A61704722F48032EEE781
:1026300022F00402F7E74FF08043DA6811B142F468
:102640000042BBE722F40042B8E74FF08043DA686B
:1026500011B142F48042B1E722F48042AEE74FF07C
:102660008043DA6811B142F40052A7E722F4005225
:10267000A4E74FF080431A6919B142F020021A61B1
:10268000704722F02002FAE74FF08043DA6811B178
:1026900042F4805292E722F480528FE74FF0804359
:1026A000DA6811B142F4006288E722F4006285E73B
:1026B0004FF08043DA6811B142F480627EE722F481
:1026C00080627BE74FF08043DA6811B142F4807298
:1026D00074E722F4807271E74FF08043DA6811B139
:1026E00042F020026AE722F0200267E74FF08043C1
:1026F000DA6811B142F0800260E722F080025DE703
:102700004FF08043DA6871B142F04002DA604FF076
:1027100080439A6A02F03F023F2AFAD15A6929B1EE
:1027200042F008027FE722F04002EFE722F00802C1
:1027300079E74FF08043DA6811B142F010023DE7CB
:1027400022F010023AE74FF08043DA6811B142F00C
:10275000007233E722F0007230E74FF08043DA680E
:1027600011B142F0807229E722F0807226E74FF023
:102770008043DA6811B142F400021FE722F400023C
:102780001CE74FF08043DA6811B142F4800215E78C
:1027900022F4800212E74FF08043DA6811B142F070
:1027A00008020BE722F0080208E74FF08043DA68DE
:1027B00011B142F0040201E722F00402FEE64FF0FC
:1027C0008043DA6811B142F00202F7E622F0020219
:1027D000F4E64FF08043DA6811B142F00102EDE611
:1027E00022F00102EAE64FF08043DA6811B142F0CC
:1027F0000062E3E622F00062E0E64FF08043DA6830
:1028000011B142F08062D9E622F08062D6E64FF044
:1028100080431A6979B142F400721A619A6A02F02F
:102820003F023F2AFAD15A6942F010025A611A69EE
:1028300042F0100223E722F010021A619A6A02F0B5
:102840003F023F2AFAD15A6922F010025A611A69EE
:1028500022F4007213E74FF080431A6979B142F411
:1028600080521A619A6A02F03F023F2AFAD15A69ED
:1028700042F020025A611A6942F40062FFE622F433
:1028800000621A619A6A02F03F023F2AFAD15A693D
:1028900022F020025A611A6922F48052EFE64FF0CA
:1028A00080431A6971B142F008021A614FF0804307
:1028B0009A6A02F03F023F2AFAD15A6929B142F0DE
:1028C0000102B0E622F00802EFE722F00102AAE6D8
:1028D0004FF080431A6931B142F004021A611A695B
:1028E00042F04002CBE622F004021A611A6922F09B
:1028F0004002C4E64FF080431A6971B142F002020F
:102900001A614FF080439A6A02F03F023F2AFAD1DF
:102910005A6929B142F0020285E622F00202EFE78D
:1029200022F002027FE64FF08043DA6811B142F0F4
:10293000805243E622F0805240E64FF080431A690D
:1029400011B142F001029AE622F0010297E64FF03F
:1029500080431A6911B142F0800290E622F08002B1
:102960008DE64FF080431A6911B142F4807286E619
:1029700022F4807283E64FF08043DA6809B11A438B
:102980001CE622F0804219E64FF08043DA6811B16C
:1029900042F0005212E622F000520FE64FF0804360
:1029A0001A6911B142F4806269E622F4806266E637
:1029B0004FF08043DA6811B142F40012FEE522F4D0
:1029C0000012FBE54FF08043DA6811B142F000429B
:1029D000F4E522F00042F1E510B50C4605280ED8CA
:1029E000DFE800F003151F28345F374A3749936941
:1029F00034B123F0200393618B685B07FCD510BDD5
:102A000043F0200393618B685C07FCD4F7E72E4A00
:102A1000936819B123F400439360F0E743F4004353
:102A2000FAE7294A936811B123F4C043F4E743F469
:102A3000C043F1E7244A936923F0180319B143F026
:102A400008039361DBE743F01003FAE701210E204E
:102A5000FFF768FD1E4BD3F80421CCB190060BD4D0
:102A6000D3F8042142F02002C3F80421D3F8042152
:102A700022F08002C3F80421154BD3F8042142F060
:102A80000402C3F80421D3F808219107FBD5B6E767
:102A900022F00402C3F80421D3F808219207FBD4E2
:102AA000ADE7094A0949936934B123F040039361C2
:102AB0008B68002BFCDAA2E743F0400393618B683C
:102AC000002BFCDB9BE700BF008000400082004041
:102AD00000900040034940F6FF53CA6A33EA0202FD
:102AE000FBD1704700E0004008B5FFF7F3FF054B4E
:102AF0001A6818B142F080721A6008BD22F0807224
:102B0000FAE700BF00E00040012808B50AD8FFF747
:102B1000E1FF054B1A6801280CBF42F0007222F059
:102B200000721A6008BD00BF00E00040F8B505461D
:102B300000285ED0314B5F6BB9B25E6C5A6CB2420A
:102B4000FBD19C6C9A6CA242FBD15A6B92B291421F
:102B5000F1D10029EFD0FFF7DFFCBFB207EE907A8A
:102B6000B8EEE77AF6EE007A002843D1DFED246A6A
:102B7000C6F3021306F00F0203EB830302EB4303D9
:102B8000EB71C6F3C223C6F3C31203EB830302EB5C
:102B90004303AB71C6F3814303EB8303C6F3833670
:102BA00006EB4306C4F3011304F00F0203EB8303A7
:102BB00002EB43032B71C4F38023C4F3831203EBB2
:102BC000830302EB4303E7EE267AEB70C4F3C223E0
:102BD000AB70C4F3834303EB8303C4F38334FCEE91
:102BE000E77A04EB430404F5FA64C5ED027A6E71EA
:102BF0002C80F8BDDFED036ABAE700BF00E00040BB
:102C00000024F4410000FA41402810B50C4608D0D9
:102C1000431EDBB21F2B09D8054A22FA03F3DB0758
:102C200004D5FFF757FF0CB9024BD86110BD00BFA8
:102C30008B80008000E00040402808B508D0431E8B
:102C4000DBB21F2B0ED8084A22FA03F3DB0709D5A3
:102C5000FFF740FF054BDB6930EA03030CBF01209F
:102C6000002008BD0020FCE78B80008000E00040D1
:102C700080280AD0402808D0431EDBB21F2B0DD875
:102C8000074A22FA03F3DB0708D5012906D8054BCA
:102C90009A6A0CBF104322EA00009862704700BF96
:102CA0008B80008000E0004008B518B1FFF712FFEC
:102CB000014B986108BD00BF00E00040BFF34F8F9B
:102CC0000449054BCA6802F4E0621343CB60BFF3CA
:102CD0004F8FFEE700ED00E00400FA0530B1054B30
:102CE000DA6A02601B6B4360002070474FF0FF30D0
:102CF000704700BF0000024083690B4214BF0120EF
:102D000000207047836B1AB923EA01018163704781
:102D10001943FBE74FF4E1330360602383804FF0F6
:102D2000407200238371826003737047036B19B193
:102D300043F001030363704723F00103FAE7036CD8
:102D40000B4214BF0120002070474164704700000F
:102D500038B5036B23F001030363C36A23F0100348
:102D6000C36200238363464B984204460D463ED11E
:102D7000FFF7BAFBC00B0138022850D8414B53F87B
:102D800020002B68B0EB031F4FEA031175D36BB122
:102D9000B0FBF1F201FB1200C000B0FBF3F000F059
:102DA000010303EB500080B240EA02431A0C03F027
:102DB0003F036262A362E36A2A7923F0600313434C
:102DC000E362E36AAA7923F008031343E3622B7BEF
:102DD0008BB3E36A43F01003E3626B79012B2ED0CF
:102DE000022B42D09BBBE36A23F002032EE0B0F13A
:102DF000402F04D1FFF77EFBC0F34F30BBE7224BDF
:102E0000984204D1FFF77CFBC0F3CF20B3E71F4B00
:102E100098420ED1FFF77AFBC0F34F20ABE7184B77
:102E20009C4202D0B4F1402F03D10220FFF70EFBE9
:102E3000A7E70320FAE7E36A23F01003CCE7E36A8D
:102E400043F00203E362E36A23F00403E362236BCB
:102E50006A8923F4407313432363236B2A8923F481
:102E6000404313432363002038BDE36A43F0020369
:102E7000E362E36A43F00403E8E74FF0FF30F3E76F
:102E800000300040A86F0008000001400010014021
:102E9000084B094AC3F8002C032218609A60074ABD
:102EA000C3F8002C4FF08042536A43F01003536282
:102EB000704700BF00E0014051E5CC1AAE1A33E57F
:102EC000044B054AC3F8002C0122DA60034AC3F818
:102ED000002C704700E0014051E5CC1AAE1A33E5F2
:102EE00010B54FF080446420A36923F48043A361AC
:102EF000FFF7DCF8A36943F48043A3610A20FFF7DE
:102F0000D5F8BDE8104000F0BDBA000008B516487D
:102F10000121FFF788F830B3144B1A6801321A60A8
:102F20001A795AB15A790132D2B25A715A79042AAD
:102F300004D900221A715A7101229A7193F80A2158
:102F40008AB193F80B210132D2B283F80B2193F8A6
:102F50000B21632A07D9002283F80A2183F80B2169
:102F6000012283F80C2108BD00C000409807002012
:102F7000014B1868704700BF9807002070B50B4ED2
:102F800004464518AC4207D1084C80212046FFF783
:102F9000B3FE0028F9D070BD04482021FFF7ACFE35
:102FA0000128F9D014F8013B3360EBE70030004012
:102FB00010B5114C10212046FFF7C1FE80B1102141
:102FC0002046FFF7C2FE0D4B216893F80921501CE3
:102FD0001A4483F80901117201221A7100225A71F0
:102FE00005484021FFF7ABFE28B1BDE8104002487C
:102FF0004021FFF7AABE10BD003000409807002016
:1030000070B5044645184FF04026AC4207D18021E8
:103010004FF04020FFF770FE0028F8D070BD20214F
:103020004FF04020FFF768FE0128F8D014F8013B6C
:103030003360EAE730B5012187B01120FFF772FA5B
:1030400001210220FFF7C8FC01211F20FFF76AFAC7
:1030500001210820FFF766FA01210720FFF762FA35
:1030600001210B20FFF75EFA01210D20FFF75AFA2C
:1030700001212020FFF756FA01212120FFF752FA03
:1030800001212220FFF74EFA01214120FFF74AFAE1
:1030900001210020FFF746FA01210E20FFF742FA36
:1030A0006420FFF703F801210420FFF73BFA022018
:1030B000FFF7CCF9654D4FF4FA63B0FBF3F042F241
:1030C000107304245843FFF7E3FE2C600120FFF740
:1030D000B1F940F2E7321723CDE902235C484FF4FF
:1030E000887302A9ADF81030FEF76EFF5848012131
:1030F000FEF77EFF56480121FEF78CFF0121544860
:10310000FEF77FFF4FF000632B60402385F81B33F1
:103110004FF080456420AB6923F48043AB61FEF738
:10312000C5FFAB694B4843F48043AB6122460F2196
:10313000FFF76AF84748484D00220F21FFF7F6F8DD
:10314000224646480821FFF75FF84448002208213C
:10315000FFF7ECF8224642480E21FFF755F84048A9
:1031600000220E21FFF7E2F822463D483D4C0C219B
:10317000FFF74AF80C213A480022FFF7D7F803F08E
:10318000BDF920890A23B0FBF3F203FB120080B2E1
:1031900064235843FEF78AFF00F074F9FFF790FEAE
:1031A00031493248FEF7FCFE3048FDF7A9FE81B2F6
:1031B0002E48FFF725FF227A238900922C4A2D49B9
:1031C00012682A481B0AFEF7EBFE3324013C14F078
:1031D000FF0430D095F80C31002B31D0264A274916
:1031E0002248FEF7DDFE2148FDF78AFE1F49024610
:1031F00005F5877003F022FBE8B16420FEF756FF67
:103200001D4A1F491948FEF7CBFE1848FDF778FE06
:1032100081B21648FFF7F4FE4FF4FA70FEF746FF4E
:1032200018491248FEF7BCFE1048FDF769FE81B24E
:103230000E48FFF7E5FE00F0F1F9002007B030BDC1
:103240006420FEF733FFFFF73BFEBFE700E100E03D
:1032500000C0004000F801409807002000F0014045
:1032600000FC0140D80B002081710008A809002053
:10327000000000208C710008050C002099710008E6
:10328000A8710008BB71000808B5064B93F80D3112
:1032900033B1FFF7B5FEBDE808406420FEF706BF76
:1032A00008BD00BF9807002008B510214FF040204E
:1032B000FFF745FDB0B110214FF04020FFF745FD6D
:1032C0004FF0402319680E4B93F80F22501C1A44FC
:1032D00083F80F0282F80E11012283F80A210022DE
:1032E00083F80B2140214FF04020FFF728FD30B13B
:1032F000BDE8084040214FF04020FFF726BD08BD43
:10330000980700201FB5044601211F20FFF70AF986
:1033100001211E20FFF706F9012211462648FFF77A
:1033200067F8254801220021FFF762F823480222AE
:103330000521FFF75DF8022204212048FFF758F825
:103340006846FFF7E7FC00941D4C69462046FFF7EE
:10335000FFFC4FF4E13369464FF040200093FFF744
:10336000F7FC204601221021FFF7CCFC2046012269
:103370004021FFF7C7FC012210214FF04020FFF74A
:10338000C1FC012240214FF04020FFF7BBFC20464A
:103390000121FFF7CBFC01214FF04020FFF7C6FCD5
:1033A000084B402280211A60196083F8062383F8B5
:1033B000072304B010BD00BF00F4014000F001403D
:1033C0000030004000E100E07047FEE7FEE7FEE766
:1033D000FEE7704770477047704701F071BD00F01D
:1033E0009BBA0000034B04221A70034B00205B6B56
:1033F000184700BFDC090020FC700008034B0522C1
:103400001A70034B00205B6B184700BFDC090020DB
:10341000FC700008034B02221A70034B00205B6B08
:10342000184700BFDC090020FC700008034B032292
:103430001A70034B00205B6B184700BFDC090020AB
:10344000FC7000082DE9F0411F460B4B0B4CDB6A6A
:103450000E46804615469847324641462046FDF7BF
:10346000ADFC074A24F8025C012355709770137075
:10347000A4F80861BDE8F081FC700008180C002079
:10348000DC0900202DE9F047384C394E8CB0201D66
:10349000FFF724FC374BE360374B6361374B236105
:1034A000374BA361374BE36104F10C003368984755
:1034B000354AF36892F84D42D6E9068964B3334839
:1034C00000249847012540F6B8334FF0080A072733
:1034D000CDE90743224623461621CDE90544CDE92F
:1034E0000345CDE9015A00972846C847CDE908456C
:1034F000CDE90644CDE90445CDE90244CDE9004AD1
:103500002B463A4621461846C047736B0B93002062
:103510000CB0BDE8F0471847917A1D481D4A1E4F70
:1035200000FB01209847012540F6B8334FF0080A08
:10353000CDE90743CDE90544CDE90345CDE9015A7D
:10354000FB780093BB78224616212846C847CDE970
:103550000845CDE90644CDE90445CDE90244CDE96D
:10356000004A2B46FA78B978CDE700BFDC09002085
:10357000FC700008E533000845340008FD330008FE
:10358000153400082D340008D80B002080A1031C3E
:10359000400D03000026221C6C13002038B50A4D94
:1035A0000A4C2B6E98472278012AD3B205D0023BF1
:1035B000032B01D80023237038BD01F0CBFF6B6BC8
:1035C00000209847F6E700BFFC700008DC090020E7
:1035D00073B5104C104E40F2F5152378042B0CD027
:1035E0002378052B09D0336E98470120FEF75EFD46
:1035F000013DF2D1A36A0133A362A36A0A2B01D968
:10360000FFF75CFB736B0193002002B0BDE87040D4
:10361000184700BFDC090020FC700008424C434EF4
:10362000002383B5424F2380238123822383238871
:1036300023B1422B17D0002323801AE0FFF7AEFFFF
:10364000BB7AEBB1236A322B05D1002339482362C0
:103650000C21FEF7C5FE236A01332362FFF788FCC5
:10366000422360602380FFF783FC6368C01A04284C
:10367000E4D823893BB1542B0ED00023238112E0E0
:10368000236A642BE0E701F0E9FFFFF719FCFFF77D
:103690006FFC5423E0602381FFF76AFCE368C01AE3
:1036A000B0F57A7FEFD2238A53B1642B0AD000237E
:1036B0002382238BC3B1792B18D000232383B6E751
:1036C000642323821C4DAB78002BF2D0281D02F01E
:1036D000C5FE40F201120021281D03F05DF8002311
:1036E00085F80531AB70EBE779232383B378002BA2
:1036F0009DD096F805315BB1104A12884FF6FE70E6
:10370000824205D00022009280210D4A01F0D4FEB1
:103710000B4840F20112002103F03EF8002386F826
:103720000531B370E0E700BF080A00209C070020C5
:103730006C13002000FC0140A2080020D80B0020E0
:10374000A007002070B5052886B038BF052003AC5F
:1037500005462046FFF7EAF994E807001A4C6B4645
:1037600083E8070084E807000020FFF7BDF9FEF7B3
:10377000D3FE0228284614BF4FF400464FF4FA4601
:10378000FCF720FE044630460D46FCF71BFE0246C1
:103790000B4620462946FCF78FFE0C4B0022FCF717
:1037A000B5FF03F081FBFDF781F9FFF77DFA0120FA
:1037B000FFF7AAF90120FFF797F90121102006B0C1
:1037C000BDE87040FFF754BA340A002000408F4033
:1037D000014BD3E904017047300A00202DE9F04F76
:1037E00087B003A8FFF7A2F9BDF80C40059A9DF831
:1037F0000FC09DF810509DF811309DF812709DF883
:1038000013E0DFF8DC80DFF8DC900192002631461F
:103810003246A4F5FA6A30B250451FFA86FB15DB32
:1038200014F003040CF1FF3C51D02B4EDFF8AC80B8
:103830000024E0B2604504F101041FDA3044007B4B
:1038400008FB00F0411842F10002F2E710B11BF052
:10385000030F05D111EB080142F100020136DAE74E
:1038600011EB0901F8E7305C08FB00F0411842F168
:103870000002E0B2604504F10104F4DB4FF4616042
:103880003C24A7FB0474A3FB0003C01943EB04030F
:1038900010EB0E0E05F1FF30104D05FB00F043F16B
:1038A00000031EEB000043F10003401842EB03024B
:1038B0004FF47A73A0FB030103FB0211019AB2FBE0
:1038C000F3F3C01841F1000107B0BDE8F08F024EDC
:1038D000DFF80880CDE700BFB46F00088051010019
:1038E0000085E2018033E10138B5FFF777FF034B34
:1038F00004460D46C3E9044538BD00BF300A002028
:1039000008B5FFF76BFF034AD2E90432C01A61EB36
:10391000020108BD300A002008B51020FFF78CF91D
:1039200090B10020FFF7E0F800211020FFF7A0F988
:1039300000211020FFF768F900F0B6F9BDE8084053
:1039400001211020FFF794B908BD72B6704762B626
:1039500070470000044B9860DA6802F01102012AF7
:10396000FAD19868C0B270470090004010B5134C6F
:103970004FF40073C4F8003107232360022323614E
:10398000D4F80431802B0BD01420FEF777FB0023F2
:10399000C4F80C311420FEF771FB0123C4F80C317C
:1039A000064B074802225A60064B4FF400121A6079
:1039B000BDE8104003220B21FEF71ABD0090004025
:1039C00000FC014000E100E00520704710B5134CF9
:1039D000D4F8043123F02003C4F804316420FEF746
:1039E0004DFBD4F8043143F02003C4F80431D4F87B
:1039F000043123F08003C4F80431D4F8003143F0DB
:103A00002003C4F80031D4F8043143F00103C4F8B2
:103A10000431D4F80831DB05FBD410BD0090004020
:103A200008B50A20FEF72AFB024AD2F80831DB0566
:103A3000FBD408BD0090004038B572B6094C002593
:103A4000C4F80C511420FEF719FBC020FFF782FFC9
:103A50002846FFF77FFF0123C4F80C31FFF7E0FF92
:103A600062B638BD00900040F8B50F4F15460646C7
:103A70000C4600F05FF90023C7F80C313046FFF721
:103A800069FF2544AC4208D10123842EC7F80C31CC
:103A900008D0BDE8F840FFF7C3BF14F8010BFFF7EB
:103AA00059FFEFE7F8BD00BF0090004073B5104E1E
:103AB000019015460C4600F03DF900210198C6F82A
:103AC0000C11FFF747FF0846FFF744FF2544AC42BF
:103AD00007D10123C6F80C3102B0BDE87040FFF7F2
:103AE0009FBF0020FFF736FF04F8010BEFE700BF90
:103AF00000900040F8B5104F154606460C4600F001
:103B000019F90023C7F80C310D20FFF723FF300A05
:103B1000FFF720FFF0B2FFF71DFF2544AC4206D1AE
:103B20000123C7F80C31BDE8F840FFF779BF14F85E
:103B3000010BFFF70FFFF1E70090004007B50122EE
:103B40008DF807100DF10701FFF7D4FF03B05DF802
:103B500004FB0000F8B5124F154606460C4600F06F
:103B6000E9F80021C7F80C111D20FFF7F3FE300A19
:103B7000FFF7F0FEF0B2FFF7EDFE0846FFF7EAFEB2
:103B80002544AC4206D10123C7F80C31BDE8F8400A
:103B9000FFF746BF0020FFF7DDFE04F8010BF0E75A
:103BA0000090004007B501220DF10701FFF7D2FF99
:103BB0009DF8070003B05DF804FB0000F8B50F4F57
:103BC000154606460C4600F0B5F80023C7F80C3140
:103BD0000E20FFF7BFFE3046FFF7BCFE2544AC4287
:103BE00006D10123C7F80C31BDE8F840FFF718BF34
:103BF00014F8010BFFF7AEFEF1E700BF00900040A4
:103C0000F8B5114F154606460C4600F093F8002112
:103C1000C7F80C111E20FFF79DFE3046FFF79AFEF5
:103C20000846FFF797FE2544AC4206D10123C7F8AA
:103C30000C31BDE8F840FFF7F3BE0020FFF78AFE25
:103C400004F8010BF0E700BF00900040022100F0F3
:103C50007FBA022070470000024803220A21FEF7C3
:103C6000D3BA00BF00F00140024804220A21FEF747
:103C7000CBBA00BF00F00140FEF718BA10B5FFF74D
:103C8000A7FD0446FFF730FE064B1B68011B241AF4
:103C900003B910BD1A688A428CBF121900221A603B
:103CA0005B69F5E7500A002070B51B4CFFF7E6FF93
:103CB000236843B15A69226000221A72DA6802B995
:103CC000FEE718699047002523683BB9FFF7D6FF48
:103CD0002368B3B970BD18699047F5E71E68FFF710
:103CE0000FFE864275EB010303D323681B68002B8C
:103CF000ECD123685A692260DA681D72002AEAD181
:103D0000FEE75A7A002AE5D10122BDE87040186822
:103D10005A72FFF717BD00BF500A0020014B1878F8
:103D2000704700BF640A0020014B1870704700BF45
:103D3000640A002008B5074B1A7812B11B78062BCD
:103D400003D1FFF779FEFFF787FFBDE80840FFF7D3
:103D500067BE00BF640A00200A4601460020FFF744
:103D60002DBF08B5014608224FF4D860FFF7C2FE08
:103D7000002008BD07B5030A8DF80430064B8DF806
:103D800005005B782BB9022201A940F2BC60FFF765
:103D9000B1FE03B05DF804FB640A002007B5030A16
:103DA0008DF80430064B8DF805005B782BB90222A4
:103DB00001A940F2BE60FFF79DFE03B05DF804FB71
:103DC000640A002010B50C4B5B7804469BB94FF495
:103DD000D760FFF7E7FEC4F3002100F0FE000143C7
:103DE0004FF4D760FFF7AAFEE1B240F2B960BDE838
:103DF0001040FFF7A3BE10BD640A002007B58DF880
:103E00000400FFF731FF012201A98420FFF72CFEF7
:103E1000024B00221A7003B05DF804FB640A002014
:103E200007B501228DF807000DF107018020FFF78B
:103E30001BFE9DF80720044B22B901221A7003B023
:103E40005DF804FB0222F9E7640A002007B5094B7C
:103E50008DF8060004221A70030C8DF8043003223A
:103E6000030A01A983208DF80530FFF7FDFD03B09B
:103E70005DF804FB640A002010B51446FFF76CFFE0
:103E80002046BDE81040FFF7E1BF000007B5094B31
:103E90008DF8060005221A70030C8DF804300322F9
:103EA000030A01A982208DF80530FFF7DDFD03B07C
:103EB0005DF804FB640A002013B50C4B0446052290
:103EC000962140F6AC001A70FFF738FE230C8DF8EF
:103ED00004300322230A01A982208DF805308DF8D1
:103EE0000640FFF7C1FD02B010BD00BF640A00200C
:103EF00007B5030C8DF80030030A8DF801300B0C68
:103F00008DF802008DF803308DF805100B0A06229B
:103F1000694694208DF80430FFF7A6FD024B062277
:103F20001A7003B05DF804FB640A0020002208B593
:103F30001146C520FFF798FD014B07221A7008BDF6
:103F4000640A002000221146D120FFF78DBD07B57D
:103F500001228DF807000DF107019F20FFF784FD76
:103F600003B05DF804FB07B501228DF807000DF1E1
:103F70000701A020FFF778FD03B05DF804FB07B54B
:103F800001228DF807000DF107019620FFF76CFD67
:103F900003B05DF804FB0000184B984207B50DD93B
:103FA000E1238DF80430E9238DF80530022201A9C0
:103FB0009820FFF759FD03B05DF804FB104B9842C1
:103FC00004D9D7238DF80430D823EDE70D4B984260
:103FD00004D9C1238DF80430C523E5E70A4B984284
:103FE00004D975238DF804308123DDE7074B98420F
:103FF000DCD96B238DF804306F23D5E700E9A435B5
:1040000080F8A9328044E52D000B6B1B40FC54194D
:1040100007B58DF8062004228DF804008DF80510F0
:1040200095200DEB02018DF80730FFF71DFD03B061
:104030005DF804FB13B5040A8DF801008DF8031038
:10404000080A8DF80520110A1A0A8DF806200822A0
:104050008DF802008DF80410104669468DF8004076
:104060008DF80730FFF700FD02B010BD07B5022242
:1040700001A91220FFF71AFDBDF8040040BA80B272
:1040800003B05DF804FB07B501228DF807000DF1C0
:1040900007019D20FFF7E8FC03B05DF804FB00007A
:1040A00008B5FFF763FCFFF791FCFFF7C5FC0020A4
:1040B000FFF7B6FE0120FFF7E6FF024B01221A7060
:1040C00008BD00BF640A002037B5154DAB78044623
:1040D0001BB9FFF761FF0123AB702046FCF772F9B3
:1040E0000DA3D3E90023FCF711FBFCF7A7FC030E9B
:1040F0008DF804300422030C8DF805308DF807008C
:10410000030A0DEB020186208DF80630FFF7ACFCA8
:1041100003B030BDAFF30080000000008084EE3FAC
:10412000640A002007B5064B8DF80700587001227D
:104130000DF107018A20FFF797FC03B05DF804FB3F
:10414000640A0020014B5878704700BF640A0020C1
:1041500037B5044600200D46FFF77BFD01280346D6
:1041600020D10F2C02464FF000010CBF0620042086
:10417000FFF74EFF6FF002008442B8BF04460E2CDA
:10418000A8BF0E24182140F6E700FFF7D7FC022253
:1041900001A98E208DF804408DF80550FFF764FCCE
:1041A00003B030BD40F6D800FFF7FCFC40F01E0025
:1041B000C1B240F6D800FFF7C1FC134B18780228B3
:1041C00018D0032806D0012818D103460022052163
:1041D000032003E00221012300220846FFF718FF15
:1041E0006FF002008442B8BF0446162CA8BF162404
:1041F0003821C8E7012300220321EFE70123002231
:1042000007210420EAE700BF4D0A0020000000005B
:1042100013B52F4A0446516810686B4603C32D4BF3
:1042200020785B78834201D0FFF77CFF23781BB1B5
:10423000012B37D002B010BD6068FCF7C3F802460E
:104240000B461FA1D1E90001FCF760FA0022224BC6
:10425000FCF732F9FCF7F2FB030C8DF80030030A8F
:104260008DF80130237B8DF802008DF80330A068B3
:10427000637B8DF80430FCF7A5F813A3D3E9002382
:10428000FCF744FAFCF7DAFB030C8DF80530030A5F
:104290008DF806308DF80700082269468B20FFF75D
:1042A000E3FBC7E7237C8DF80030637C8DF8013099
:1042B000A37C8DF80230E37C8DF803300422ECE718
:1042C0000000000080847E41000000008084EE3FFA
:1042D000CC6F0008640A0020000040401FB5304A3F
:1042E0000446D1689068127C01AB03C31A702D4B51
:1042F00020785B78834201D0FFF714FF23781BB14D
:10430000012B39D004B010BD637AF12B28D14FF6C0
:10431000FF70FFF72FFD48F20500FFF73FFD022376
:1043200062888DF80520110A22798DF806206279BD
:104330008DF80720A2798DF80820E2798DF8092000
:104340008DF80B30227AA37A8DF80A208DF80410AC
:104350008DF80C30092201A98C20FFF785FBD1E7ED
:10436000F22BDDD141F60F50FFF704FD41F22100A1
:10437000FFF714FD0623D3E7A3898DF805301A0A49
:10438000A37B8DF80630E37B8DF80730237C8DF816
:104390000830637C8DF804208DF809300622DAE7B6
:1043A000CC6F0008640A002013B5049C8DF803301C
:1043B000230C8DF800008DF801108DF802208DF887
:1043C00004300522230A694688208DF805308DF8CF
:1043D0000640FFF749FB024B07221A7002B010BDDE
:1043E000640A002007B502228DF804008DF805103C
:1043F0008F2001A9FFF738FB03B05DF804FB07B578
:10440000012201A91520FFF751FB9DF8040040424D
:10441000401003B05DF804FB37B504460D46022298
:1044200001A91320FFF742FB0C4B5B78012B11D144
:1044300040F20470FFF7B6FBC0F3C710012809D1A2
:1044400040F20270FFF7AEFB20709DF805302B7034
:1044500003B030BD9DF804302370F6E7640A0020F5
:10446000F7B50D46064600240DF10701284617460C
:104470008DF80740FFF7D0FF2A78BA4207D89DF899
:1044800007003146FFF7BCFB204603B0F0BD01201A
:10449000FBE7000013B50322044601A91420FFF72F
:1044A00005FB1B494A7822704AB1012A17D0142211
:1044B0000021204602F070F90F2323700DE09DF8D3
:1044C000043023719DF80530A2605B425B10A3713C
:1044D0009DF806305B425B10637102B010BD9DF821
:1044E00004309DF905205B425B1023739DF8053075
:1044F000002AB6BFA3F580739B089B1063739DF8D9
:1045000006305B425B10A3734B682361E5E700BF95
:10451000640A002007B50222030A8DF8050001A9EC
:1045200010468DF80430FFF79FFA03B05DF804FBE6
:1045300000207047012070470020FFF771BC000089
:1045400010B50D4C2060FFF7ABFD0020FFF768FCB5
:104550000120FFF714FD00210846FFF743FF042167
:104560000020FFF7F5FD002318461A461946FFF70D
:1045700061FD0020207110BD6C0A002008B5FFF716
:10458000CDFBC31EDBB2022B9ABFC0F10600C0B246
:10459000002008BDFFF798BD08B5FFF730FF00B257
:1045A00008BDFFF7FFBAFFF7C9BA000038B50C46DF
:1045B000002340F201211A4605460846FFF73AFD5E
:1045C000FFF7C0FD074B012807480CBFDC751C74C2
:1045D000FFF784FE214628460022BDE83840FFF759
:1045E0004BBC00BF6C0A0020740A002008B50023F1
:1045F00018461A461946FFF71DFD4FF00400FFF755
:10460000FDFBBDE808400220FFF736BBFFF770BC9A
:1046100037B5144B93F840500F2805F10D05EDB256
:104620001AD807281AD803281AD8012894BF0024BA
:10463000012400234FF4C0711A460846FFF7FAFC24
:10464000002300930A2229462046FFF7ADFE03B05F
:10465000BDE83040FFF76ABC0424EAE70324E8E73A
:104660000224E6E76C0A002010B50C46FFF72CFD8B
:104670002046FFF7EBFABDE81040FFF763BCFFF7F9
:1046800039BAFFF767BA08B5FFF79EF9033008BDDE
:1046900010B590B10A4B012219461C68A04206D3FE
:1046A0009C68A04203D201EBC202107910BD013216
:1046B000162A03F10803F0D1FEE71F20F6E700BF3A
:1046C000E06F000808B540F2422100231A46084670
:1046D000FFF7B0FC064B93F844202AB16FF07F40FF
:1046E000BDE80840FFF7D2BB986C8001F8E700BF37
:1046F0006C0A00200128084805D1084BC1751970C3
:104700000830FFF7EBBDC37B012B03D1034B0174D2
:104710001970F5E7704700BF6C0A00200400002004
:1047200008B5022100231A460846FFF783FC064B12
:1047300093F844202AB16FF07F40BDE80840FFF7AE
:10474000BBBB986C8001F8E76C0A002037B54D4C74
:104750002379002B00F09380FFF7F7F800232371F3
:10476000FFF7F5F8B4F84C30D90707D50120FFF76B
:10477000DBFA236813B11B6803B19847B4F84C30D7
:104780009A072FD594F8445095B90120FFF7CCFA39
:10479000294640F60210FFF7D1F940F64410FFF722
:1047A00001FA40F00200C1B240F64410FFF7C6F92A
:1047B000FF220DF107013448FFF752FE3348FFF79F
:1047C00069FE236873B19D6865B1B4F84C305B062F
:1047D00008D494F95D3194F95C219DF807102A48BA
:1047E0001A44A847B4F84C3058060AD594F8443017
:1047F00013B90120FFF798FA236813B11B6903B1BD
:104800009847B4F84C3019060BD50120FFF78CFA05
:10481000236833B19B6923B1B4F84C00C0F3002086
:104820009847B4F84C309A050BD5FFF777FA04286F
:1048300019D10120FFF778FA236813B15B6803B13F
:104840009847B4F84C309B0619D594F8443013B906
:104850000120FFF769FA23688BB1DB687BB103B0F5
:10486000BDE830401847FFF759FA0528E9D1012083
:10487000FFF75AFA2368002BE3D0DB68DFE703B0C9
:1048800030BD00BF6C0A0020BA0A0020BC0B00201B
:104890000E4B10B5044683F8640183F8650100F0FF
:1048A00017F85CB134214FF4E860FFF747F9442171
:1048B000BDE8104040F24170FFF740B914214FF4B9
:1048C000E860FFF73BF92421F2E700BF6C0A002003
:1048D00008B50120FFF726FC064B93F8640193F816
:1048E0006521824205D083F86501BDE80840FFF7E5
:1048F000CFBF08BD6C0A0020012808B507D00020F2
:10490000FFF710FC044B002283F8652108BDBDE8C9
:104910000840FFF7DDBF00BF6C0A002037B5FFF786
:10492000D7FF0020FFF7B2FA002425460120FFF749
:10493000A3F9FFF764FD00F00103A3400134202C2C
:1049400045EA0305F2D100F0CBFA28440190FFF7C5
:104950004DFE019803B030BD0A2838B50DD8084B7C
:1049600003EBC000D0E92C4501208840FBF73AFD5D
:1049700022462B46FBF7CAFE38BD00240025F3E78C
:10498000E06F0008000000002DE9F04F85B00E46F2
:104990009DF84C1000919DF85C109DF84470BDF896
:1049A0004090754CDFF8ECA1BDF83C8084F84410D1
:1049B000002918BF4FF00009002F15469DF8482028
:1049C00008BFFF228AF80020834620B1012867D063
:1049D00005B0BDE8F08FFFF7BAFA0B23304684F834
:1049E0003C3084F830B06563FFF752FE41F60403B3
:1049F000A3819AF800302374009B84F83D00002BBB
:104A000014BFF223012387F0010763744FEAC8083B
:104A10000123A374E77384F808B0A4F80A8084F82B
:104A20000EB0FFF789FD94F83000003818BF012060
:104A3000FFF762FF04F13000FFF7EAFB04F1080022
:104A4000FFF74CFC4D4AD2F80801D2F80C1102AB2A
:104A500003C302A8FFF785F940F2FF10FFF7B2F990
:104A60002846FBF7AFFC02460B4600204449FBF703
:104A70004DFE444B0022FBF71FFD064648460F46FD
:104A8000FBF7B0FC02460B4630463946FBF714FDF7
:104A90003D4B0022FBF710FDFBF7D0FFA06497E72A
:104AA00000200193FFF753FA5FFA89F0FFF75BFAF2
:104AB000324A019B84F830B032445FFA85F992F8AB
:104AC000100184F8409084F8410084F842308EBB95
:104AD0000B3D012D32D80123A9F10509994584F830
:104AE00043B0237238D8B8F10B0F35D80C23A3820A
:104AF0009AF80030E375009B23769DF85830637672
:104B0000A775FFF7E5FE2148FFF782FB2048FFF776
:104B1000E5FB637E012B40F2367020D1FFF742F8AF
:104B200000F0FB0140F23670FFF708F84FF6FF7314
:104B3000A3644DE7012E01D10C2DCCD04946FFF7DF
:104B40000BFF0BA3D3E90023FBF73CFFB0F1000BF5
:104B500018BF4FF0010BBEE7A4F81480C8E7FFF7B9
:104B600021F840F00400C1B2DCE700BFAFF30080E1
:104B7000000000A0476130406C0A0020E06F000890
:104B80000000F03F0000204000408F409C0A0020C1
:104B9000740A0020040000202DE9F74F0C9EBDF898
:104BA00038709DF83C909DF840B05B4C8A4690462A
:104BB000054648B1012847D040F68900FEF7F2FFCC
:104BC00040F00400C1B284E00B2284F830001846A3
:104BD00084F83C206663FFF75BFD41F60403BBF1FC
:104BE000000FA38114BFF22301236374FF0001238C
:104BF00089F00109A37484F83D00C4F83880257257
:104C00006781A57384F80F90FFF796FC94F8300045
:104C1000003818BF0120FFF76FFE04F13000FFF7E6
:104C2000F7FA04F10800FFF759FB3C4AD2F80801F3
:104C3000D2F80C116B4603C36846FFF792F840F2B6
:104C4000FF10FFF7BFF8B7E7344A9DF8341084F837
:104C500030001A445FFA86F892F8100184F8408018
:104C600084F8410084F84210002B3FD10B3E012E06
:104C700040D80123A8F10508984584F843502372D1
:104C800044D80B2F42D80C23A382254B84F81690CE
:104C90001B78E3759DF84C30637684F818B0FFF705
:104CA0004BFC94F83000003818BF0120FFF724FEB9
:104CB0001C48FFF7ADFA1C48FFF710FB94F8413091
:104CC000062B7FF479AF40F68900FEF76BFF00F00A
:104CD000FB0140F68900FEF731FF5046FEF7B6FFB4
:104CE000149BC4F8683103B0BDE8F08F012B01D1EB
:104CF0000C2EBED04146FFF72FFE05A3D3E90023BB
:104D0000FBF760FE051E18BF0125B2E7A782BCE7CE
:104D1000000000A0476130406C0A0020E06F0008EE
:104D2000040000209C0A0020740A002000000000FB
:104D30002DE9F74F884628B101283DD0002003B067
:104D4000BDE8F08F5A4A9FED5B6A517B538903EBB4
:104D5000D10307EE903AD37BF8EEE77A002B07EE0B
:104D6000108AF7EE006A08BFF0EE466A77EEA67A80
:104D7000B8EEC77A537C77EE877A022BB0EE007AD2
:104D800018BFB0EE467A77EE877AB2EE007A67EE19
:104D9000877A92ED0D7AB8EE477AC7EE876ADFED33
:104DA000467A66EEA77A17EE900AFBF72DFB01F024
:104DB000DFFFFBF743FEC2E7DFF8F4A09AF840B04C
:104DC0009AF841005946FFF7C7FDBAF8143007EECC
:104DD000903AF8EEE77AB1EE017A77EE877A0446F8
:104DE0000D4617EE900AFBF70FFB22462B46FBF70A
:104DF00063FB9AF816300646CBEB48089AF8180081
:104E0000012B08F1070808EB80080CBF14200020D4
:104E1000C0EB88000F46FBF7E5FA9AF84330002B09
:104E2000804614BF02200020ABEB000080008946C2
:104E3000FBF7D8FA02460B4640464946FBF766FCAC
:104E400001F09EFE02469AF8420000F003000B4675
:104E50000430CDE90023FBF7C5FADDE90023FBF7B9
:104E60002BFB0022002380468946FBF7B5FD18B9CD
:104E70004FF000084FF00009104B00224046494611
:104E8000FBF764F922462B46FBF716FB32463B46FE
:104E9000FBF75CF904A3D3E90023FBF757F901F012
:104EA000EBFE86E7AFF30080000000E0CEF7EF3FB7
:104EB0006C0A00200000000000007A44000020403E
:104EC00010B5064C01232371FFF7D0F8A4F84C006D
:104ED000BDE810404FF6FF70FFF71CBB6C0A0020C6
:104EE000074B08491A6843F2390001FB02001860B9
:104EF0006FF00043B0FBF3F3C3EBC373C01A70470A
:104F0000080000206D4EC6412DE9F043A1B01422E7
:104F1000002106A801F040FC182200210BA801F096
:104F20003BFC564D1022002102A801F035FC3C222A
:104F3000002111A801F030FC95F84D32012B40F012
:104F4000968005F14A0000F0F3FEFF2805F14A07BC
:104F50006BD04B4B00B200EB80002822002103EB0A
:104F6000C00001F019FC00F0BDFEFF2806467ED00F
:104F7000DFF80C8100B2282400EB80004FEAC00962
:104F80002246002108EBC00001F006FC04FB06826B
:104F90000223537195F83F311371EB8F5384B5F8A9
:104FA000424154801E23536209F10602D5F84A306B
:104FB00042F8083002EB080195F849207B684B6005
:104FC00009F10E002F49083A404401F077FC2B8884
:104FD0001C44A4B24FF6FC77204600F093FEFF2855
:104FE00048D1631E9BB2BB4244D8230A8DF81830C7
:104FF000AB7A8DF81A30244B8DF8194028209A7816
:10500000DB788DF81C304643012308EB0600009343
:105010008DF81B208DF81D30408828F806400623A7
:1050200006AA022100F048FA21E01849384600F0AB
:1050300024FF002897D10BA9384600F001FF95F80E
:10504000492005F15201083A02A801F037FCB5F9F0
:105050003E300F49009302AA0BAB11A8FCF7A0FF4A
:1050600011A8FBF74DFF81B211A8FEF70DF921B091
:10507000BDE8F0830134A4B2AEE700BFD80B002036
:105080003C0E00202A0C00206C130020300E002063
:10509000D67100082DE9F0473B4E96F84D32012BB2
:1050A00098B015D1B6F84201384F00F02BFEFF281A
:1050B000044610D0282303FB00735B79012B0AD12F
:1050C00000930023B6F842011A46042100F0F4F9D7
:1050D00018B0BDE8F087282505FB0475F38FDFF8CD
:1050E000B8A06B844FF000084FF00109204685F806
:1050F0001E8085F8059000F0A9FC414634220BA8DB
:1051000001F04AFBD6F80D00DAF8041009AB03C32E
:105110000AF1200218461E49FCF742FF0F210AF14E
:10512000200001F0FDFB0830C3B209AAB6F8420125
:10513000CDF80090042124B200F0BEF904EB840401
:105140004146182203A801F027FBE4003C22414617
:1051500009A801F021FBA01D03A9384400F070FE4E
:10516000B5F922300B49009304F10E0203AB3A4427
:1051700009A8FCF715FF09A8FBF7C2FE81B209A830
:10518000FEF782F8A4E700BFD80B00203C0E0020F9
:10519000A5710008E6710008E50B0020104B73B5FF
:1051A000B3F842010F4D00F0ADFD2826044601235F
:1051B0007043009300231A46285A142100F07CF90A
:1051C00020B200EB80003246002105EBC00001F068
:1051D000E3FA204602B0BDE8704000F0C9BC00BF51
:1051E000D80B00203C0E002070470000F7B52827A0
:1051F00004460C4E78430025305A00952B462A462B
:10520000112100F059F904EB84003A46294606EBD7
:10521000C00001F0C1FA204603B0BDE8F04000F044
:10522000A7BC00BF3C0E00200F4B10485A88B3F8B3
:1052300042118A4208BFDA8F70B408BFDA8028258D
:10524000002205FB02F42618245A8C4207D1DA8F7B
:10525000728470BC93F849100548FDF78FBE013287
:10526000202AEED1F5E700BFD80B00203C0E00202D
:10527000220C002038B5194C01232373184BA27A55
:105280001A70A2881A816288DA802246002532F8D4
:10529000151B99804FF480715981D4F84A30C4F8B5
:1052A0001530D4F84E30536004F11D0318462946DA
:1052B0000F2284F84A5201F06FFA94F8492004F161
:1052C0005201083A01F0FAFA84F82C5000F032FB4F
:1052D00000F000FABDE83840FDF7F0BCD80B002024
:1052E0006C13002008B5094B1A89094B1A819A8062
:1052F00000224FF6FE715A81D98000F01BFB00F0AE
:10530000E9F9BDE80840FDF7D9BC00BFD80B002083
:105310006C13002008B5144B144A93F84A0093F814
:105320004B1001EB0021118193F84C0093F84D10C4
:1053300001EB0021918093F84E10117093F84F10FB
:10534000917093F85010D17093F8521093F8533035
:1053500003EB0123D38000F0EDFA00F0BBF9BDE8C8
:105360000840FDF7ABBC00BFD80B00206C13002039
:1053700030B5164C257B89B035BB94F84D32022BE5
:1053800022D1D4F80D00D4F8111084F84C5240F218
:105390000133A4F84A3202AB03C30F22184604F1CA
:1053A0002D0125738DF81F5001F088FA0F2104F1AB
:1053B0002D0001F0B5FA0830C3B2009502AA012110
:1053C0004FF6FE7000F078F809B030BDD80B002021
:1053D00030B5102589B0144C2A4600210DEB05008C
:1053E00001F0DAF9D4F81110D4F80D0002AB2D3425
:1053F00003C32946204601F093FA214602460DEBED
:105400000500FBF7DBFC2946204601F089FA002362
:105410000830009302AAC3B203214FF6FE7000F0D9
:105420004BF809B030BD00BFD80B0020134B93F8E8
:105430004920062A21D193F8431093F8442002EB27
:1054400001225A8093F84A1093F84B2002EB012274
:105450009A80B3F840211A8093F84C209A72084A37
:1054600093F84D10917093F84E10D17002221A7378
:10547000032283F84A22FFF7ABBF7047D80B002006
:105480006C13002037B50A4D002423462246688855
:105490000094132100F010F8064B2A891A81DC8051
:1054A0009A805C8103B0BDE8304000F043BA00BF91
:1054B000D80B00206C130020F8B5244C9DF8186020
:1054C00084F850011D467B2384F84A31238884F8F0
:1054D0004C311F0AA38884F84B7184F84E311F0A9F
:1054E000030A84F84D7184F84F31FEB194F84731C6
:1054F00084F8513184F8521184F853510021CBB211
:105500009D421BD805F10A06F6B23146104800F05C
:105510002DFC264405F10B0186F84A01C9B284F836
:1055200049120B48BDE8F84000F0F6BF94F84E323F
:1055300084F85131013384F84E32DBE70A3354FAF0
:1055400083F3505C83F84A010131D8E7D80B00207F
:10555000220D002010B5404C00F012FCB4F84811A8
:105560000139C9B204F1400000F000FCB4F8483140
:10557000234493F83F3083426DD1B4F84011228820
:10558000914205D04FF6FE73994201D09A4262D102
:1055900094F84631012B03D194F84D32012B0CD0F5
:1055A000B4F84431A2889A4203D04FF6FE72934277
:1055B00051D1B4F8420100F0B9FB94F84631152BF3
:1055C00010D8B3B1013B142B13D8DFE803F01C2033
:1055D00024281212121212121212121212122C1269
:1055E00030123400322B32D007D8202B27D0302B6A
:1055F00029D0BDE8104000F08DBF802BF9D1BDE867
:105600001040FFF711BEBDE81040FFF77DBCBDE8BC
:105610001040FFF70BBFBDE81040FFF73BBDBDE8F2
:105620001040FFF727BEBDE81040FFF75BBEBDE8A6
:105630001040FFF7B3BDBDE81040FFF76BBEBDE8FB
:105640001040FFF7D1BDBDE8104000F0A3BFBDE89A
:10565000104000F0FFBF10BDD80B002010B51C4C4F
:1056600094F84A22237B134305D194F84D32022B40
:1056700001D1FFF77DFE94F84B32BBB1013B94F8AA
:105680004A12DBB284F84B3281B17BB994F84C22D8
:105690000132D2B2012A84F84C2214D9012906D051
:1056A00003290CD084F84A3284F84C3210BD84F8B7
:1056B0004C32FFF75DFE032384F84B32F6E7237389
:1056C000FFF786FEF7E70129F3D00329EED1F7E7CC
:1056D000D80B0020F8B58C4C00F0E8FE00222280A8
:1056E0001046B2F5FC7F93B240F0E7801346073BCB
:1056F0009BB2238003F1807303F5D053DB00834D0D
:105700001A7802F00F02EA701A78C2F30112AA7036
:105710001A789209AA725A7802F07F022A705A788F
:10572000D209EA729978DA7842EA01222A81197953
:105730005A7942EA0122EA809979DA7942EA012229
:10574000AA80734A03F1080603F1100C374603CF11
:105750006745106051603E4602F10802F6D1386894
:105760001060B888B979917190806A4A03F118067F
:105770002033374603CF9F42106051603E4602F10E
:105780000802F6D138681060B988BB79604891800A
:1057900093710F2101F0C4F85F4F28B93A895F492E
:1057A00007F12D00FCF7FCFB5A480F2101F0B8F877
:1057B00018B95B495748FCF7F3FB2688594B33442B
:1057C000DB001A4603CA584AC7F815005160197A17
:1057D000DA7A42EA0162597A9B7A42EA014242EA63
:1057E00003230736EB602680484C4B4D2378642B0F
:1057F00084BF00232370A378022B84BF0223A370ED
:10580000E378073B052B84BF0723E370E37A022B81
:1058100084BF0023E372A388013B9BB24FF6FC7266
:10582000934284BF2B89A3802389013B9BB24FF60F
:10583000FC72934284BF2B892381E388013B9BB296
:105840004FF6FC72934284BF0023E380A37A022BBD
:1058500001BF4FF6FE7363602B892381E368B3F5C4
:10586000165F26460ED0B3F5964F0BD0B3F5164F04
:1058700008D0B3F5614F05D0B3F5E13F1CBF4FF43D
:10588000E133E360E068FDF73DFD2378AB72E38828
:105890006B802389AB80A3882B80E37A2B73A37A58
:1058A00085F84D3296E80F00204C84E80F00002365
:1058B00085F83C3085F82C30F8BDD10001F100614D
:1058C00001F5504107320968013101D0012008E794
:1058D00000B12380002B7FF40AAF0C490E4C0B70F3
:1058E00040F202724A8022890A81CB808A80CB7280
:1058F00004F12D000949FCF753FB0D4904F11D008B
:10590000FCF74EFB70E700BF641300206C1300200F
:10591000050C0020F50B0020D80B0020F6710008C4
:10592000FE710008051A0001ED0B00204414002050
:105930000772000870B58EB02422002105A800F07F
:105940002BFF3C4B9A78D978120101F00F0102F03D
:1059500030020A43997A02EB81128DF800201A78FE
:10596000D97A02F07F0202EBC1128DF801201A8968
:105970008DF80320110ADA888DF802108DF80520C1
:10598000110A9A888DF804108DF80720110A2A4A06
:105990008DF8061002AC02F1080610685168254621
:1059A00003C50832B2422C46F7D1106828609188AE
:1059B0009279AA71214AA98006AC02F10806106802
:1059C0005168254603C50832B2422C46F7D110680B
:1059D000286091889279A9801949AA71DB68D1F869
:1059E0001500D1F81910174C0AAA03C21A0E8DF827
:1059F00030201A0C8DF831208DF833301A0A2388A4
:105A00008DF83220B3F5FA7F04D300230E482380AB
:105A1000FCF752FB208800F1807000F5D05038224E
:105A20006946C000FCF788FB2388073323800EB04B
:105A300070BD00BF6C130020050C0020F50B00208A
:105A4000D80B00206413002000D00008F0B51F28F8
:105A500089B0024642D8424D6C88B4F5FA7F3FD3F4
:105A60004048414C00266E80FCF726FB4FF0FF3784
:105A700014F8013C012BF2B22BD161682068CDF8FB
:105A80000B706B4603C334F8063C8DF80930190AD5
:105A90008DF80F708DF808108DF80A2004F10803B6
:105AA0000DF1100C04F1180E18685968624603C213
:105AB000083373459446F7D1688800F1807000F58B
:105AC000E05020226946C000FCF736FB6B880433A7
:105AD0006B800136202E04F12804C9D109B0F0BD35
:105AE0004FF0FF33CDF80B308DF80F3000EB800313
:105AF0001E4EDB00991D01EB060C8859DCF80410E2
